:040000003BEF03F0DF
:020008001100E5
:0C000A00000000000000000000001200D8
:10001600240E0C6EB50E0D6E0D2EFED70C2EFCD7D3
:06002600000000001200C2
:0A002C00530E0D6E0D2EFED71200CC
:100036005EBE02D0839E01D0838E5EBC02D0839CBE
:1000460001D0838C5EBA02D0839A01D0838A5EB8CF
:1000560002D0839801D0838840B002D0828C01D030
:10006600829C828ECFDF829E5EB602D0839E01D0B6
:10007600838E5EB402D0839C01D0838C5EB202D0A4
:10008600839A01D0838A5EB002D0839801D0838898
:1000960040B002D0828C01D0829C828EB3DF829ED9
:0C00A60040A002D0B5DF01D0BEDF120088
:1000B200086A096A100E0C6E0134083609360450BB
:1000C200085E0550D8A0053C095ED8B007D00450A0
:1000D20008260550D8B0053C0926D89000360136CE
:0600E2000C2EEAD712000B
:1000E800C7B409D01F0EC514016E0150000A03E100
:0A00F800010E006E01D0006A120034
:100102005B6A050E5B5C0AE25B505924E16E000EED
:100112005A20E26E200EE66E5B2AF3D75B5059241A
:10012200E16E000E5A20E26EE66A5B065B505924CD
:100132005C6E000E5A205D6E0A0E046E000E056E95
:1001420057C000F058C001F0B3DF08C000F009C08A
:1001520001F0300E00265CC0E1FF5DC0E2FF00C08E
:10016200E6FF0A0E046E000E056E57C000F058C07E
:1001720001F09EDF00C057F001C058F0000E0118D8
:1001820002E1000E001801E102D05B06CFD7120097
:10019200F250026EF29E0500FF6A0150FE6E0050A0
:0801A200FD6E02BEF28E120098
:0C01AA00409057C05EF042DF4080120021
:0401B600C5841200EA
:1001BA000900F5CFE6FF0006FBE10106F9E11200AE
:1001CA000FD0800E4D6E19D0C00E4D6E16D0940E03
:1001DA004D6E13D0D40E4D6E10D0800E4D6E0DD0D4
:1001EA004D50010AEEE04D50020AEEE04D50030A6E
:1001FA00EEE04D50040AEEE0F0D74E04006E4D508A
:10020A00002600C04DF000C05EF010DF4090516A39
:10021A0051504F24E96E000E5020EA6EEE520BE068
:10022A0051504F24E96E000E5020EA6EEECF57F07F
:0A023A00B7DF512AEDD74080120013
:1002440015C04DF016C04EF017C04FF018C050F056
:10025400C582C5A21DD0155016101710181017E02E
:100264004D504E104F1050100CE12BC0E1FF2CC02C
:10027400E2FF060EE66E29C000F02AC001F087DF17
:1002840007D0010E4D5E000E4E5A4F5A505AE1D718
:02029400120056
:1002960015C04FF016C050F017C051F018C052F0FC
:1002A6009E96C5869EB61DD01550161017101810AE
:1002B60017E04F505010511052100CE12BC0E1FFC7
:1002C6002CC0E2FF030EE66E29C000F02AC001F042
:1002D6005DDF07D0010E4F5E000E505A515A525A3A
:1002E600E1D7C9CF4EF04D50000A02E1C58A01D0D0
:1002F600C59A9E96C58815C04FF016C050F017C017
:1003060051F018C052F09EB61DD015501610171099
:10031600181017E04F505010511052100CE12BC01E
:10032600E1FF2CC0E2FF030EE66E29C000F02AC0F2
:1003360001F02CDF07D0010E4F5E000E505A515AC5
:0A034600525AE1D74EC000F0120039
:10035000949E949C9598959A959C959E829E829C3D
:10036000839E839C839A839856DE55DE54DE838A6F
:100370008388828E4ADE829E4EDE828E46DE829E9A
:100380004ADE828E42DE829E46DE8398828E3DDE8B
:10039000829E41DE828E39DE829E839A838E828E99
:1003A00034DE829E38DE839E8388828E2EDE829E9D
:1003B0008398828E2ADE829E2EDE828E26DE829EAA
:1003C0008388828E22DE829E26DE8398828E1DDEC8
:1003D000829E838E838C838A8388828E16DE829EA1
:0603E0001ADE408012004D
:1003E600E80E2D6E000E2E6E000E2F6E000E306E75
:1003F600340E416E050E426E000E436E000E446EC4
:10040600440E456E020E466E000E476E000E486E96
:10041600960E496E020E4A6E4D0E4B6E000E4C6ED7
:10042600BC0E386E050E396E4D0E3A6E000E3B6EE2
:10043600B60E3C6E010E3D6E000E3E6E000E3F6E19
:10044600939093928A908A9293809382C79EC79C38
:06045600380EC66E120014
:10045C00536A546A4DC055F04EC056F0800E4E187B
:10046C00006E800E005C02E1000E4D5C0BE2010E92
:10047C00536E000E546E4D500008556E4EC056F023
:10048C00000E565655C057F056C058F04FC059F094
:10049C0050C05AF030DE060E516E000E526E000E39
:1004AC00006E5250005C02E15150000819E25150AC
:1004BC004F24E16E52505020E26E010E515C006EE2
:1004CC00000E5258016E00504F24E96E015050201E
:1004DC00EA6EEECFE6FF010E515E000E525ADFD7E8
:1004EC004FC0E1FF50C0E2FF200EE66E5350541097
:1004FC001AE0516A526A51504F24E96E5250502002
:10050C00EA6EEE50200A03E1514A522AF4D7010E4A
:10051C00515E000E525A51504F24E16E52505020F1
:08052C00E26E2D0EE66E1200D6
:1005340015C04FF016C050F017C051F018C052F05B
:100544004D6A4E6A4E50120802E14D508E0807E380
:10055400C9DD005201E003D04D4A4E2AF3D7120EF2
:100564004E5C02E18F0E4D5C03E37B0E006E23D0E4
:10057400C580C5A01FD0155016101710181019E00B
:100584004F505010511052100EE12BC0E1FF2CC0FF
:10059400E2FF050EE66E29C000F02AC001F0F7DD87
:1005A400010E006E08D0010E4F5E000E505A515AD3
:0805B400525ADFD7006A120061
:1005BC009E964DC0C9FF15C04EF016C04FF017C027
:1005CC0050F018C051F0C7A41FD0155016101710BA
:1005DC00181019E04E504F10501051100EE12BC056
:1005EC00E1FF2CC0E2FF040EE66E29C000F02AC029
:1005FC0001F0C9DD010E006E37D0010E4E5E000E0B
:10060C004F5A505A515ADFD715C04EF016C04FF002
:10061C0017C050F018C051F09EB61FD015501610D0
:10062C001710181019E04E504F10501051100EE1C9
:10063C002BC0E1FF2CC0E2FF040EE66E29C000F0D7
:10064C002AC001F0A0DD010E006E0ED0010E4E5E30
:10065C00000E4F5A505A515ADFD7C5BC02D0006A0F
:0A066C0003D0C584020E006E1200D8
:1006760099EC03F00F0EC16E68DE010E5E6ED8DCDB
:100686000C0E5E6ED5DC010E4D6E020E4E6E190E10
:100696004F6E000E506E96DD0C0EC86EA1DE47DF63
:1006A600A00E4D6E88DF050E4D6E85DF270E4D6E52
:1006B60082DF7EDD030E0B6E8A0E0C6E550E0D6EFE
:1006C6000D2EFED70C2EFCD70B2EFAD700000000FD
:1006D6002EDFA00E4D6E6FDF050E4D6E6CDFAFDDAB
:1006E600A10E4D6E68DF4D6AD3DD00C028F060DDD7
:1006F60028C04DF0000E4E6E310E4F6E000E506E3D
:10070600AADE020E4D6E020E4E6E310E4F6E000EBA
:08071600506E58DDFFD7FFD73C
:1007320010EE15F0140E006E010E016E1E0EF66E16
:0E074200070EF76E000EF86EDDEC00F01200F0
:04071E0000000000D7
:0F07220050494331384634353530204932430091
:0107310000C7
:020000040030CA
:0E000000000C1F1EFF8381FF0FC00FE00F409A
:00000001FF
