:10000000E8EF00F00000000000EF00F0000000004A
:0A0010000000000000000000F3D71C
:10001C000B6A0A6A096A00500402F4CF09F0F3CFA4
:10002C0008F001500502F4CF0BF0F3CF0AF00050AA
:10003C000502F3500926F4500A22E86A0B220150FB
:10004C000402F3500926F4500A22E86A0B2208C075
:10005C0000F009C001F00AC002F00BC003F012005E
:10006C00CB50010F006E016A000E01221BC004F080
:10007C00000E056ECDDF060E026E00C004F001C04E
:10008C0005F0025005E005320432059EFF0FFAD749
:10009C00040E016E04C000F0015004E00036009024
:1000AC00FF0FFBD7300E0014036E04C000F005C028
:1000BC0001F001320032019E01320032019E00C07B
:0C00CC00BEFF0F0EBD160350BD12120047
:1000D800CB50010F006E016A000E01221BC004F014
:1000E800000E056E97DF060E026E00C004F001C018
:1000F80005F0025005E005320432059EFF0FFAD7DD
:10010800040E016E04C000F0015004E000360090B7
:10011800FF0FFBD7300E0014036E04C000F005C0BB
:1001280001F001320032019E01320032019E00C00E
:0C013800BBFF0F0EBA160350BA121200E3
:1001440017501524006E00C015F000C01BF08CDFA2
:02015400120097
:1001560017501624006E00C016F000C01BF0B9DF61
:02016600120085
:0A0168009492CA840C0EBA12120021
:08017200BE6ABD98BD9A12009F
:08017A00BB6ABA98BA9A1200A0
:0A0182009494CA840C0EBD12120002
:10018C00CA80CA829C0ECB6EEEDFCA80CA829C0EDD
:10019C00CB6EEDDFF0DFE2DF156A166A1B6A60DFFB
:1001AC0016C01BF093DF960E155C04E2010E176E61
:1001BC00C3DFF9D7960E165C04E2010E176EC5DF8D
:0401CC00F9D712004D
:1001D000DDDF210E0C6E760E0D6E0D2EFED70C2E71
:0801E000FCD70000F6D7FFD7A1
:020000040030CA
:0E000000000C1F1EFF8381FF0FC00FE00F409A
:00000001FF
