:10000000AEEF01F00000000000EF00F00000000083
:0A0010000000000000000000F3D71C
:06001C00000000001200CC
:100022000F0E0C6E470E0D6E0D2EFED70C2EFCD74A
:06003200000000001200B6
:0A003800210E0D6E0D2EFED71200F2
:100042003EBE02D0839E01D0838E3EBC02D0839CF2
:1000520001D0838C3EBA02D0839A01D0838A3EB803
:1000620002D0839801D0838815B002D0828C01D04F
:10007200829C828ED2DF829E3EB602D0839E01D0C7
:10008200838E3EB402D0839C01D0838C3EB202D0D8
:10009200839A01D0838A3EB002D0839801D08388AC
:1000A20015B002D0828C01D0829C828EB6DF829EF5
:0C00B20015A002D0B5DF01D0BEDF1200A7
:0C00BE0015903DC03EF0BEDF1580120022
:1000CA000FD0800E386E19D0C00E386E16D0940E2E
:1000DA00386E13D0D40E386E10D0800E386E0DD014
:1000EA003850010AEEE03850020AEEE03850030AAE
:1000FA00EEE03850040AEEE0F0D73904006E3850CA
:10010A00002600C038F000C03EF096DF15903C6A29
:10011A003C503A24E96E000E3B20EA6EEE520BE0A8
:10012A003C503A24E96E000E3B20EA6EEECF3DF0D9
:0A013A00C1DF3C2AEDD7158012004A
:100144000900F5CFE6FF0006FBE10106F9E1120024
:10015400080E386E396A38C000F0380600521AE0CA
:1001640083B601D0FDD71A0E0D6E0D2EFED70000FA
:1001740083A60FD038C001F0010E006E015004E0D8
:1001840000360090FF0FFBD70050391283A601D030
:0A019400FDD7E1D739C000F01200DA
:10019E00086A080E0C6E003408360450085ED8B09B
:0E01AE0002D00826D89000360C2EF5D712008D
:1001BC00949E949C9598959A959C959E829E829CD3
:1001CC00839E839C839A839826DF25DF24DF838A92
:1001DC008388828E1DDF829E1EDF828E19DF829EB7
:1001EC001ADF828E15DF829E16DF8398828E10DFD7
:1001FC00829E11DF828E0CDF829E839A838E828E8A
:10020C0007DF829E08DF839E8388828E01DF829EB9
:10021C008398828EFDDE829EFEDE828EF9DE829EC9
:10022C008388828EF5DE829EF6DE8398828EF0DEE7
:10023C00829E838E838C838A8388828EE9DE829E63
:06024C00EADE158012003D
:10025200B80EF66E030EF76E000EF86E1C0EE16E0F
:10026200000EE26E1C0E006E010E016E6ADF9596A4
:100272008396410E0C6EEE0E0D6E0D2EFED70C2ED9
:10028200FCD700008386130E0D6E0D2EFED70000E4
:100292000000958683A601D0FDD783B601D0FDD795
:1002A20083A601D0FDD755DF18C0E1FF19C0E2FFD8
:1002B20000C0E6FF4EDF4DDF1AC0E1FF1BC0E2FFC8
:1002C20000C0E6FF46DF45DF1AC0E9FF1BC0EAFFB8
:1002D200EECF00F00A0E046E61DF300E0024236EB2
:1002E2001AC0E9FF1BC0EAFFEECF00F00A0E046E4F
:1002F20055DF08C000F0300E0024246E18C0E9FF5C
:1003020019C0EAFFEECF00F00A0E046E47DF300E8E
:100312000024316E18C0E9FF19C0EAFFEECF00F0E9
:100322000A0E046E3BDF08C000F0300E0024326E6D
:10033200DF0E276E010E386E010E396E1C0E3A6EFC
:10034200000E3B6EC1DE020E386E010E396E2A0EB1
:0A0352003A6E000E3B6EB8DE12009A
:10035C000B0E0B6E260E0C6E5D0E0D6E0D2EFED75B
:10036C000C2EFCD70B2EFAD70000000021DF0C0E50
:10037C003E6E61DE010E3E6E5EDE160E186E000ED7
:10038C00196E170E1A6E000E1B6E5DDF0B0E0B6EC8
:10039C00260E0C6E5D0E0D6E0D2EFED70C2EFCD7A0
:0C03AC000B2EFAD700000000E8D7FFD7A6
:0E03B80054656D70203D2030302E3020430003
:0E03C600556D6964203D2030302E302025001A
:020000040030CA
:0E000000000C1F1EFF8281FF034003600340BF
:00000001FF
